:1000000000800020BD010000A9CE01006DCE0100DE
:100010006DCE01006DCE01006DCE01006DCE0100F0
:100020006DCE01006DCE01006DCE0100A9CE0100A4
:10003000A9CE01006DCE0100A9CE01005DCE010068
:10004000A9CE0100A9CE0100A9CE0100A9CE0100D0
:10005000A9CE0100A9CE0100A9CE0100A9CE0100C0
:10006000A9CE0100A9CE0100A9CE0100A9CE0100B0
:10007000A9CE0100A9CE0100A9CE0100A9CE0100A0
:10008000A9CE0100A9CE0100A9CE0100A9CE010090
:10009000A9CE0100A9CE0100A9CE0100A9CE010080
:1000A000A9CE0100A9CE0100A9CE0100A9CE010070
:1000B000A9CE0100A9CE0100A9CE0100A9CE010060
:1000C000A9CE0100A9CE0100A9CE0100A9CE010050
:1000D000A9CE0100A9CE0100A9CE0100A9CE010040
:1000E000A9CE0100A9CE0100A9CE0100A9CE010030
:1000F000A9CE010009EB0100A9CE01006DF20100BB
:10010000A9CE0100E9F70100A9CE0100A9CE0100A6
:10011000A9CE0100A9CE0100A9CE0100A9CE0100FF
:10012000A9CE0100A9CE0100A9CE0100A9CE0100EF
:10013000A9CE0100A9CE0100A9CE0100A9CE0100DF
:10014000A9CE0100A9CE0100A9CE0100A9CE0100CF
:100150006DE1010085E101009DE10100B5E10100D3
:10016000A9CE0100FDD30100A9CE0100A9CE010056
:10017000A9CE0100A9CE0100A9CE0100A9CE01009F
:10018000A9CE0100A9CE0100A9CE0100A9CE01008F
:10019000A9CE0100A9CE0100A9CE0100A9CE01007F
:1001A000A9CE0100A9CE0100A9CE0100A9CE01006F
:1001B000A9CE0100A9CE0100A9CE0100574B4CF2F7
:1001C000205210B51A804DF628121A8000BF00BFC9
:1001D0001CF06EFE524B4FF010621A60514A9A604A
:1001E000514ADA60A3F53043203B1A6812F480725A
:1001F00004D14E490A604FF4A8521A604C4B1A7849
:10020000110703D51A7842F008021A70494B4A4C7C
:100210004A482A221A704A4A00239918A14203D256
:10022000195899500433F8E7464B474900228B424E
:1002300002D243F8042BFAE74448454900235A58B0
:100240001A500433B3F5DE7FF9D1424B424A802184
:1002500003F8011B9342FBD1404B3C4A1A60404BD0
:100260008A221A70A3F5805324225A70A0221A7091
:100270009A799207FCD59A79D406FCD4394A9379B5
:1002800003F00C03082B374BF9D103221A714622D5
:100290005A719A799006FCD5324A9179314B4906C8
:1002A000FBD5314A4FF08271116009215160202243
:1002B0001A709A7902F00C020C2AFAD12B4B2C4AB4
:1002C0001A602C4B2C4A1A6000225A60072243F80D
:1002D000042C2A4AC3F80C2D62B61CF04FFF134BB6
:1002E0001B68DA0705D526481CF08CFE254B264AEC
:1002F0001A60264B1B785B0609D5224C224A2368DC
:10030000934204D11E481CF07DFE0023236021F09F
:1003100003FF1CF0D3FD1DF0F1FFFEE70E200540AA
:1003200030800440823F04000100002B14D00340C1
:1003300002D0074000E0074064E5FF1F501D0300A6
:100340008088FF1F68E5FF1F983800200082FF1F8C
:100350000000000000E400E05FE400E008ED00E0E1
:1003600000500640004006404480044004800440A1
:10037000C010050014E000E0BFD401000000202000
:1003800084B771581CE00340A5C3945A00F007409D
:10039000FFFFFFFFFFFFFFFFFFFFFFFFFFFFFFFF6D
:1003A000FFFFFFFFFFFFFFFFFFFFFFFFFFFFFFFF5D
:1003B000FFFFFFFFFFFFFFFFFFFFFFFFFFFFFFFF4D
:1003C000FFFFFFFFFFFFFFFFFFFFFFFFFFFFFFFF3D
:1003D000FFFFFFFFFFFFFFFFFFFFFFFFFFFFFFFF2D
:1003E000FFFFFFFFFFFFFFFFFFFFFFFFFFFFFFFF1D
:1003F000FFFFFFFFFFFFFFFFFFFFFFFFFFFFFFFF0D
:10040000FFFFFFFFFFFFFFFFFFFFFFFFDEF9FFFF23
:1004100010B5054C237833B9044B13B10448AFF33E
:1004200000800123237010BD68E5FF1F000000005D
:10043000481D030008B5064B1BB106480649AFF33B
:1004400000800648036813B1054B03B1984708BD07
:1004500000000000481D03006CE5FF1F64E5FF1F5E
:100460000000000038B50546244C204600214FF01E
:10047000FF321BF00FFF204610214FF0FF321BF020
:1004800013FF204604214FF0FF321BF017FF2046D8
:1004900003214FF0FF321BF01BFF204610214FF0CD
:1004A000FF321BF01FFF20464FF0FF311BF02EFFE5
:1004B00020464FF0FF311BF01FFF20464FF0FF3169
:1004C0001BF02EFF00220E4B1A60204613214FF026
:1004D000FF321BF02FFF0B4B1D600B4B03F1100184
:1004E000002243F8042B8B42FBD1084B03F110018F
:1004F000002243F8042B8B42FBD138BD98E5FF1F47
:1005000084E5FF1FFCE6FF1F88E5FF1F00E7FF1FD4
:10051000884207DA044B1B68081A4FF4400191FB2C
:10052000F0F11981704700BFFCE6FF1F08B50248D3
:100530001BF084FE08BD00BF98E5FF1FC0F57F409B
:10054000FF302C4B1B781A0463B142F0004343F098
:100550001003294A5363D36A03F47043B3F5405F31
:10056000F9D810E0254B1B6800221A70224B4FF07F
:100570008052DA6210225A631A46D36A03F4704337
:10058000B3F5405FF9D81B4B1B781A046BB142F0EE
:10059000805280B20243184B5A631A46D36A03F45E
:1005A0007043B3F5405FF9D814E0144B1B68002288
:1005B0001A70114B4FF08052DA6280B240F0C05096
:1005C00058631A46D36A13F0805FFBD00B4B1B684D
:1005D00001221A70084AD36A13F0F00FFBD0064BC1
:1005E0009B6B054AD36A13F0F00FFBD0024B9B6B59
:1005F000704700BF8036002000C002407C360020DB
:10060000C0F57F40FF302C4B1B781A0463B142F0D9
:10061000004343F01203294A5363D36A03F470433F
:10062000B3F5405FF9D810E0254B1B6800221A7023
:10063000224B4FF08052DA6212225A631A46D36A72
:1006400003F47043B3F5405FF9D81B4B1B781A04D1
:100650006BB142F0805280B20243184B5A631A4683
:10066000D36A03F47043B3F5405FF9D814E0144B38
:100670001B6800221A70114B4FF08052DA6280B270
:1006800040F0C05058631A46D36A13F0805FFBD025
:100690000B4B1B6801221A70084AD36A13F0F00F43
:1006A000FBD0064B9B6B054AD36A13F0F00FFBD0CF
:1006B000024B9B6B704700BF8036002000C0024099
:1006C0007C360020C0F57F40FF302C4B1B781A048D
:1006D00063B142F0004343F01403294A5363D36AE1
:1006E00003F47043B3F5405FF9D810E0254B1B6865
:1006F00000221A70224B4FF08052DA6214225A63A1
:100700001A46D36A03F47043B3F5405FF9D81B4B24
:100710001B781A046BB142F0805280B20243184B2E
:100720005A631A46D36A03F47043B3F5405FF9D8AD
:1007300014E0144B1B6800221A70114B4FF08052CA
:10074000DA6280B240F0C05058631A46D36A13F0A0
:10075000805FFBD00B4B1B6801221A70084AD36ADA
:1007600013F0F00FFBD0064B9B6B054AD36A13F0D6
:10077000F00FFBD0024B9B6B704700BF8036002010
:1007800000C002407C360020C0F57F40FF302C4B7B
:100790001B781A0463B142F0004343F01603294A60
:1007A0005363D36A03F47043B3F5405FF9D810E0A4
:1007B000254B1B6800221A70224B4FF08052DA62E0
:1007C00016225A631A46D36A03F47043B3F5405FA6
:1007D000F9D81B4B1B781A046BB142F0805280B2DF
:1007E0000243184B5A631A46D36A03F47043B3F5B5
:1007F000405FF9D814E0144B1B6800221A70114BAB
:100800004FF08052DA6280B240F0C05058631A460E
:10081000D36A13F0805FFBD00B4B1B6801221A7068
:10082000084AD36A13F0F00FFBD0064B9B6B054AC6
:10083000D36A13F0F00FFBD0024B9B6B704700BFE5
:100840008036002000C002407C36002038B53E4B88
:1008500018600A2001211CF009FC092001211CF06C
:1008600005FC092001211CF0DDFB0021374B19603C
:100870003748402221F07CFF364B1A6842F4805200
:100880001A60354B354A1A604FF03842DA604FF043
:1008900078421A614FF40071314A11600121314AE6
:1008A0001170314A1A60314B1B7813F0010F07BFEA
:1008B0004FF410722E4B4FF400722E4B1A602B4BDC
:1008C0001B7813F0020F4FF400720CBF2A4B2B4B16
:1008D0001A60264B1B7813F0040F07BF4FF41072F9
:1008E000274B4FF40072274B1A604FF6FF7080F3CE
:1008F0001000254C20606060A060E060FFF71EFEE5
:100900006068FFF77DFEA068FFF7DCFEE068FFF798
:100910003BFF0E490B680E4A206822F8130003F1D2
:100920000805606822F8150003F11005A06822F898
:10093000150003F11800E46822F81040013303F0B9
:1009400007030B6038BD00BF64E7FF1F50E7FF1FC0
:1009500010E7FF1F3C80044000C0024001401F80A0
:1009600010B0044080360020000C1F807836002034
:1009700018B0044008C004401CB004400CC004403F
:1009800014B0044004C0044054E7FF1F154B1A681C
:1009900042F480521A604FF41073134A1360043A01
:1009A0001360124B124A1A601A6842F440621A60CD
:1009B0001B6813F4804F07D00C4B4FF03842DA60BD
:1009C0004FF078421A61704743F4804141F00101D1
:1009D000064A11604FF03841D1604FF07841116103
:1009E000136070473C80044018B0044000C00240CF
:1009F00000001F80F0B583B0254C022666600C23F2
:100A0000A3604FF47A7300932046224978223C2356
:100A10001BF0FCFA66601623A3601F490B681F4D8C
:100A2000A3FB05234A68A2FB05028968A1FB050117
:100A30000091642101FB03F11948A0FB01714909F0
:100A40000191204617491BF0E1FA66602023A3605C
:100A500015494A68A2FB05320B68A3FB05038968A8
:100A6000A1FB05510091204610491BF0CFFA6660AA
:100A70002A23A36020460E490E4B1A680E4B1B68B2
:100A80001BF0C4FA66603423A36003B0F0BD00BF5E
:100A9000603500206062020088E7FF1F22222202E8
:100AA000898888887062020078E7FF1F88620200E8
:100AB0009862020074E7FF1F84E7FF1F2DE9F041F1
:100AC000234C4FF00208C4F804800C23A360214F8C
:100AD0003B68B3F800E0204E3268204D2B6820467A
:100AE0001F49AEEB12221B0A1BF090FAC4F80480D7
:100AF0001623A3603B68B3F802E072686B68204677
:100B00001849AEEB12221B0A1BF080FAC4F80480CD
:100B10002023A3603B68B3F804E0B268AB682046CA
:100B20001149AEEB12221B0A1BF070FAC4F80480C4
:100B30002A23A3603B68DF88F268EB6820460B49F4
:100B4000A7EB12221B0A1BF061FABDE8F08100BF7F
:100B500060350020FCE6FF1F00E7FF1F88E5FF1F50
:100B6000A8620200B4620200C0620200CC6202000D
:100B700030B583B0134C40230093204600210A4631
:100B800080231AF001FF002363600C23A36020463A
:100B90000D491BF063F9022363601623A3600B4821
:100BA00042680B49A2FB01320368A3FB0153806832
:100BB000A0FB01010091204606491BF027FA03B073
:100BC00030BD00BF60350020D862020068E7FF1F1B
:100BD00022222202DC62020008B50D4B1A6842F0A4
:100BE00080721A600B4B1A6842F001021A601820DA
:100BF00001211CF03BFA192001211CF037FA2022B8
:100C0000054B1A604FF4002240331A6008BD00BF44
:100C1000FCED00E0001000E008F00F402DE9F0438B
:100C200083B0044636481BF0EDFA364D364E2F465B
:100C3000A846D6F80828D6F80C38D31A022B29D0A3
:100C4000D6F8083803F0010303F5007356F82310B3
:100C500001B3DFF8C090484601221AF0C9FC022314
:100C6000C9F80430C9F80830EA1BD21048462749B1
:100C7000013209231BF0CAF9484629681BF0EEF837
:100C80006B68984748461AF0C1FCD6F8083801331B
:100C9000C6F80838002004F160014FF0010C18E09C
:100CA000D4F8E43003F00F0201EBC20252880133A2
:100CB000C4F8E430082A07D0042A0AD1AB682BB163
:100CC000EB682BB1083504E0604602E0454600E0E1
:100CD0004546D4F8E020D4F8E4309A42E0D1002828
:100CE000A7D00023C4F8E430C4F8E030084B1B68F8
:100CF0000193019BC4F8E83003B0BDE8F08300BF66
:100D0000F06202005C630200502D002004630200C8
:100D10007435002060350020074A002313604FF02F
:100D2000FF3151609360054A136051609360044A3B
:100D3000136051609360704788E7FF1F78E7FF1FDB
:100D400068E7FF1F2DE9F0410E4C022604F1200850
:100D500025786768284631461CF088F928463946C8
:100D600032461CF0D7F808344445F1D10022064B36
:100D70001A60064B03F1100143F8042B8B42FBD1A0
:100D8000BDE8F081AC63020094E7FF1F98E7FF1F06
:100D9000104B1B681BB100220E4B1A6001230D4A39
:100DA00052681AB100210B4A516002221A43094BC2
:100DB0009B681BB10021074B996004231A43054B24
:100DC000DB681BB10021034BD960082313430249A0
:100DD0000B60704798E7FF1F94E7FF1F0123037024
:100DE0000023437080F82230436283620F2280F830
:100DF0002320821E0232D90151800133102BF9D1F8
:100E0000704700BF30B41546003218BF012202708F
:100E100072B135F8135000231A46C41862802A4470
:100E200092B20233202BF8D10123437080F82310B3
:100E300030BC7047F0B40378002B7CD0437843B9C2
:100E4000436A8B4205DC836A994202DC90F82200F7
:100E500072E0841D0D250EB20FE0531004EB430722
:100E600034F91350B54205DD1A46002AF5DC0EE0D0
:100E700013462A46BC1CD31A5D1E002D07DD6A10DE
:100E800004EB420734F91230B342F1DDEDE7831C85
:100E9000E31A5B101FFA83FC023B9BB20FFA8CF43F
:100EA0001AB294421CDB4FF6FF774FF40072A4464F
:100EB0001CB200EB4404B4F902400C1B002CB8BF78
:100EC0006442A4B226B215B2AE42B8BF1F46AE42CB
:100ED000B8BF224601339BB21CB2A445E8DA01E058
:100EE0004FF6FF773BB200EB4302B2F90220C2EBB0
:100EF000C20230F9131001EBC10111440911416222
:100F000000EB4301B1F9041001EBC1010A441211D5
:100F10008262002B07DB1F4690F923309F42B8BF47
:100F20003B469BB200E00023DBB280F82230002277
:100F30004270184600E0002040B2F0BC704700BF8D
:100F40002DE9F84F4FF000094FF00908DFF88CB099
:100F5000DFF88CA01F4B83FB08304FEAE873C3EB2C
:100F6000600000EB4000A8EB800020F02FFE594607
:100F700020F080FE20F0EAF904460D461EF0D2FE75
:100F800006460F46204629461EF02EFF04460D4613
:100F9000304639460022104B20F02CFA20F00CFD90
:100FA00021F02EF84AF809000AEB090620462946E6
:100FB0000022094B20F01EFA20F0FEFC21F020F860
:100FC000706008F1010809F10809B8F1150FC1D1E5
:100FD000BDE8F88FABAAAA2A00003C40920A063F5F
:100FE000A8E7FF1F2DE9F04F83B08246894693465C
:100FF00025481C231AF0AAFD244B9AF8002003EB85
:10100000C20153F832304F6809EB03085F440124F2
:101010001F4900911C48A8F10301FA1E08231AF089
:10102000D7FC1AF80430194901EBC30251F83360B8
:101030004E4455685D440095134841463A46334650
:101040001AF01EFD0134032C02D0B0462F46DFE714
:101050009AF800100C4C0D4A52F8313002EBC102E4
:1010600052685A440092204631462A464B441AF0B0
:1010700007FD074B00932046F11EEA1E08231AF0D5
:10108000A7FC03B0BDE8F08F60350020A8E7FF1F84
:101090005862020030B47F4B1B78032B00F2F880BB
:1010A000DFE803F0023B78B57B4B1C68013404F0A9
:1010B00007047A4901EB4401C4F10703784D2A463D
:1010C00031F8020B22F8020F013BB3F1FF3FF7D1D9
:1010D000C4F10801734B03EB4101631E44B1724A32
:1010E00032F8020F21F8020B013BB3F1FF3FF7D1B9
:1010F0006E4B1C686E482B46002233F8021F0A44D0
:101100008342FAD182F4F822C2F38432694B23F885
:10111000142001225F4B1A70BAE05F4B1C68013447
:1011200004F0070404F108015C4B03EB4101C4F136
:1011300007035B4D2A4631F8020B22F8020F013BF0
:10114000B3F1FF3FF7D1C4F10801564B03EB410166
:10115000631E44B1584A32F8020F21F8020B013BDA
:10116000B3F1FF3FF7D1514B1C6851482B46002289
:1011700033F8021F0A448342FAD104F1400182F499
:10118000F822C2F384324B4B23F811200222414B48
:101190001A707DE0404B1C68013404F0070404F130
:1011A00010013E4B03EB4101C4F107033C4D2A46BD
:1011B00031F8020B22F8020F013BB3F1FF3FF7D1E8
:1011C000C4F10801374B03EB4101631E44B13B4AB4
:1011D00032F8020F21F8020B013BB3F1FF3FF7D1C8
:1011E000324B1C6832482B46002233F8021F0A4457
:1011F0008342FAD104F1800182F4F822C2F38432EE
:101200002C4B23F811200322224B1A7040E0224B72
:101210001C68013404F0070404F118011F4B03EBB0
:101220004101C4F107031E4D2A4631F8020B22F892
:10123000020F013BB3F1FF3FF7D1C4F10801194B95
:1012400003EB4101631E44B11D4A32F8020F21F83D
:10125000020B013BB3F1FF3FF7D1144B1C6814485C
:101260002B46002233F8021F0A448342FAD104F1CC
:10127000C00182F4F822C2F384320E4B23F811200D
:101280000022044B1A70013404F03F04074B1C6029
:1012900030BC704718EAFF1F50E7FF1F10E7FF1F21
:1012A00006EAFF1F08EAFF1F0EE7FF1F1CEAFF1FE9
:1012B00016EAFF1F08E8FF1F1EE7FF1F2EE7FF1FAC
:1012C0003EE7FF1F2DE9F843FFF7E4FE0023DFF8B8
:1012D000B8802B4C2B480121D8F8002001321A4449
:1012E00002F03F0234F81270FD1003EBC5150668DA
:1012F00007F0070701FA07F716F805C04CEA0707D9
:10130000775502F1400534F815C003F140054FEA66
:10131000EC0605EBC61607680CF0070C01FA0CFC8E
:1013200017F8069049EA0C0C07F806C002F180068F
:1013300034F816C00CF1200C4FEAEC0603EBC6168D
:1013400007680CF0070C01FA0CFC17F8069049EA44
:101350000C0C07F806C0C03234F812602036F210C8
:1013600005EBC212056806F0070601FA06F6AF5C47
:101370003E43AE5401333F2BAED1BDE8F88300BFEE
:1013800008E8FF1F603500201CEAFF1F30B47F4BC8
:101390001B78032B00F2F880DFE803F0023B78B5FE
:1013A0007B4B1C68013404F007047A4901EB4401CB
:1013B000C4F10703784D2A4631F8020B22F8020FD8
:1013C000013BB3F1FF3FF7D1C4F10801734B03EBCD
:1013D0004101631E44B1724A32F8020F21F8020B38
:1013E000013BB3F1FF3FF7D16E4B1C686E482B46B3
:1013F000002233F8021F0A448342FAD182F4FC220D
:10140000C2F34532694B23F8142001225F4B1A7056
:10141000BAE05F4B1C68013404F0070404F10801D2
:101420005C4B03EB4101C4F107035B4D2A4631F8E5
:10143000020B22F8020F013BB3F1FF3FF7D1C4F1D9
:101440000801564B03EB4101631E44B1584A32F880
:10145000020F21F8020B013BB3F1FF3FF7D1514BD3
:101460001C6851482B46002233F8021F0A4483426D
:10147000FAD104F1400182F4FC22C2F345324B4B15
:1014800023F811200222414B1A707DE0404B1C686A
:10149000013404F0070404F110013E4B03EB410159
:1014A000C4F107033C4D2A4631F8020B22F8020F23
:1014B000013BB3F1FF3FF7D1C4F10801374B03EB18
:1014C0004101631E44B13B4A32F8020F21F8020B7E
:1014D000013BB3F1FF3FF7D1324B1C6832482B463A
:1014E000002233F8021F0A448342FAD104F180013A
:1014F00082F4FC22C2F345322C4B23F81120032244
:10150000224B1A7040E0224B1C68013404F007049F
:1015100004F118011F4B03EB4101C4F107031E4DF9
:101520002A4631F8020B22F8020F013BB3F1FF3FCC
:10153000F7D1C4F10801194B03EB4101631E44B11B
:101540001D4A32F8020F21F8020B013BB3F1FF3FB5
:10155000F7D1144B1C6814482B46002233F8021FA5
:101560000A448342FAD104F1C00182F4FC22C2F39E
:1015700045320E4B23F811200022044B1A7001341F
:1015800004F03F04074B1C6030BC704718EAFF1F93
:1015900050E7FF1F10E7FF1F06EAFF1F08EAFF1FC3
:1015A0000EE7FF1F1CEAFF1F16EAFF1F08E8FF1FD8
:1015B0001EE7FF1F2EE7FF1F3EE7FF1F2DE9F0414B
:1015C000FFF7E4FE0021DFF874C01A4A1A4F012623
:1015D000DCF8003001330B4403F03F0303F140001B
:1015E00032F81050EC1032F8130000EBC4103C68D5
:1015F00005F0070506FA05F514F8008048EA050528
:10160000255403F1C00032F81040E010803332F866
:101610001330403303EBC013386804F0070406FAB4
:1016200004F4C55C2C43C45401313F29D0D1BDE83A
:10163000F08100BF08E8FF1F603500201CEAFF1F93
:10164000F0B40026DFF828C0084F0CEB060407F1C1
:1016500028050FCD0FC40FCD0FC495E8030084E813
:1016600003002836A02EF0D1F0BC70474C64020075
:1016700068EBFF1F032805DC00EB8000054B03EB44
:10168000C0007047043800EB8000034B03EBC00040
:10169000704700BF68EBFF1F4C640200704700BF3B
:1016A00038B505460C460848084B53F82110224629
:1016B0001AF0A8FD04F0010385F84130C4F340049A
:1016C00085F8514038BD00BF00880200E075020077
:1016D00010B582B004464FF47A7301FB03F3B3F5FF
:1016E000FA6F38BF4FF4FA634360064819461AF0A0
:1016F00089FD054B1B680193019BC4F8E83002B0DB
:1017000010BD00BF20880200743500202DE9F84389
:101710000446002303601921FFF7DAFF264B1E1F42
:10172000254603F10C094FF00208FF2756F8040F75
:10173000C0B2A86041461BF099FC2F7308354E4596
:10174000F4D104F1280304F13801002243F8042BFA
:101750009942FBD100252587658784F83C501020ED
:1017600002211BF083FC0F2002211BF07FFC84F878
:10177000405084F841506564A564FF2684F84D60AC
:1017800084F84C60162002211BF070FC1520022109
:101790001BF06CFC84F8505084F851506565A565C9
:1017A00084F85D6084F85C60C4F8E450C4F8E050EC
:1017B000C4F8E850BDE8F883F08702002DE9F04155
:1017C00082B004468846304F012500263CE0D4F81C
:1017D000E43003F00F0204EBC202603292E803002F
:1017E00002AA02E903000133C4F8E430628FBDF8B5
:1017F0000230134240D022EA0303638794F83C305E
:1018000013B384F83C601FE09DF80020022A08D042
:10181000032A14D0012A16D1D8F8283068469847F0
:1018200011E0012B02D184F83C500CE0082B01D1CF
:10183000022026E0D8F828306846984703E0D8F818
:101840002C30684698473D60D4F8E020D4F8E43066
:101850009A42BCD10D4B1B680093009AD4F8E83033
:10186000D21A63689A4284BF012384F83C3094F80A
:101870003C0080F0010004E094F83C20002AC0D134
:10188000C2E702B0BDE8F08168D4FF1F74350020C4
:101890002DE9F04F85B082468946564B1B6802936E
:1018A000DDF808B0544CBAF8383003F0040292B2B4
:1018B000002A14BF0326012603F0080292B2002A70
:1018C00018BF022603F00303032B14BF00230123D8
:1018D00089F80030474A13680393DDF80C80D4F888
:1018E0000828D4F80C38D31A022BF8D0D4F80838CA
:1018F00003F0010303F5007354F823100029EED020
:101900003E4D2846012219F073FE284600210C2284
:10191000802319F0BBFF02276F60AF60284638496B
:101920001AF09CFA6F601123AB60284635491AF013
:1019300095FA032E0FD10C230093284639460F2227
:10194000802319F039FF6F601D23AB6028462E49B4
:101950001AF084FA11E02948022343601D238360B2
:1019600029491AF07BFA022E07D10C230093234851
:1019700002211B22802319F01FFF204B02225A60F4
:1019800029229A6099F800301BB11C481F491AF0AF
:1019900065FA1A4802234360352383601C491AF014
:1019A0005DFACBEB0805B5F57A7F23BF0BF6E8337C
:1019B000C8EB0303C3F314138023104F02220092D9
:1019C000384600213E2219F025FE384619F01EFE49
:1019D000D4F808380133C4F8083840F6E7339D429C
:1019E0007FF661AFBAF83830AAF83A30304605B021
:1019F000BDE8F08F74350020502D002060350020A8
:101A00004088020054880200688802007C88020036
:101A10009088020008B51BF0A5F903480349044A61
:101A200020F06AFB08BD00BF08ECFF1F9D160000F8
:101A3000D0C2FF1F012303700023C0F82431C0F877
:101A40002831C0F82C31C0F8303100F120026FF09D
:101A50003F03D90122F8021F0133402BF9D170470F
:101A60002DE9F00F82B0BDF828508C46002954D0E3
:101A7000002B52D0002A50D04FF6FF71994035EA22
:101A8000010145D149E015F0010F06D03CF8146082
:101A900000EB4B014E800BF1010B6D0801349C42B1
:101AA000F1D100F1020C00F1A20700210B460C4617
:101AB0000BF10045013D01951B4E47F6FF753CF9C2
:101AC00013A004FB02AADDF80490C3EB09083CF95B
:101AD00018806FEA040909FB0288B245B8BFB24614
:101AE000B045B8BFB04600EB0109AA45A8BFAA4659
:101AF000A9F8A2A0A845A8BFA84627F8028D0133DF
:101B00005B4524BF0134002302318029D7D106E090
:101B1000012101700024A346B5E70023037002B041
:101B2000BDE8F00F704700BF0180FFFF2DE9F00313
:101B30000478002C00F09280891AD0F82C41A14240
:101B40000ADBD0F83041A14206DCD0F828419C42A3
:101B500002D1D0F824117FE000F128067B270FFA8C
:101B600081FC10E06C1006EB440836F914706745F0
:101B700005DD2546002DF5DC0FE02C463D4608F13D
:101B800002062C1B671E002F07DD7D1006EB4508A3
:101B900036F915406445F0DDECE700F12204341B12
:101BA00064101FFA84F9023CA4B20FFA89F625B238
:101BB000AE421DDB4FF6FF784FF48045B14626B2AA
:101BC00000EB4606B6F922608E1B002EB8BF7642A7
:101BD000B6B20FFA86FC2FB2BC45B8BFA046BC45D2
:101BE000B8BF35460134A4B226B2B145E7DA01E008
:101BF0004FF6FF780FFA88F100EB4104B4F9224068
:101C0000C4EBC40400EB4105B5F9205005EBC50554
:101C100025442D11C0F82C5100EB4101B1F92410DD
:101C200001EBC1010C442411C0F8304198441FFA63
:101C300088F80FFA88F1002904DD7E29A8BF7E21EB
:101C400089B200E0012109B200EB4101B1F9221093
:101C5000C0F82411C0F82831881800E00846BDE813
:101C6000F0037047002902DAB0F9220070477F299B
:101C7000CEBFB0F9200100EB4101B1F9220070475D
:101C80000223038000238360438083808381037465
:101C9000C3738373037500F1160200F11E03002164
:101CA00022F8021B9342FBD100F12601002223F807
:101CB000022B9942FBD100F128033830002243F86F
:101CC000042B9842FBD1704710B44A4B83FB00238E
:101CD0000344C217C2EB2333474A02FB03000B291C
:101CE00075D8DFE801F006101A242E38424C545CF7
:101CF000646C4411414951F82420520A013451F8CE
:101D00002410490A6AE044113C4951F82420D209C0
:101D1000013451F82410C90960E04411374951F8E1
:101D200024205209013451F82410490956E0441185
:101D3000324951F824201209013451F824100909BC
:101D40004CE044112D4951F82420D208013451F8B7
:101D50002410C90842E04411284951F8242092086F
:101D6000013451F82410890838E04411234951F80E
:101D700024205208013451F8241049082EE044115F
:101D80001E4951F82420013451F8241026E0441152
:101D90001B4951F82420013451F824101EE044114D
:101DA000184951F82420013451F8241016E0441148
:101DB000154951F82420013451F824100EE0441143
:101DC000124951F82420013451F8241006E044113E
:101DD0000C4951F82420013451F82410891A00F0DC
:101DE0001F0000FB01F002EB501098405DF8044B1F
:101DF000704700BFD1000DD050ECFFFF00A00200E3
:101E0000089B02007CA20200849D0200F8A402004C
:101E10002DE9F04F87B004460F460AB9037D5BB148
:101E200004F1280304F13801002243F8042B9942FD
:101E3000FBD10023237567E0B0F8008008464146D7
:101E4000FFF742FF0546A063A36A0344A362002391
:101E50000593A37B8DF81530E37B8DF81630237C3A
:101E60008DF8173005AA0DF117012346DFF8E8C1F8
:101E700012F8010F18B9D86A2844D86209E05CF852
:101E80002000A5FB0060360E46EA0020DE6A06440C
:101E9000DE6204338A42EBD1E3893BBBA568002DA7
:101EA0000EDB38464146FFF70FFFA36A1844A062D5
:101EB000ED034319E3622B4423632B44636323E064
:101EC00041F2B03303FB05F54FEAE539254600261C
:101ED00038464146FFF7F8FEAB6A1844A862C9EBE2
:101EE000070704360435102EF2D10DE0A3680A2B43
:101EF0000ADD0A3B9B00E26A1A44E262226B1A4442
:101F00002263626B13446363608800230593627CE1
:101F10008DF81520A27C8DF81620E27C8DF8172014
:101F2000A1890AB2029255420395A6880096A4465A
:101F3000224609B20191DFF824A1DCF82810019DA6
:101F4000002D0ADD5D1C05F0030504EB4505B5F920
:101F50001650029E06FB051509E0DD1C05F0030581
:101F600004EB4505B5F91650039E06FB051507134E
:101F700007EB072737490F4407F20119290E17F815
:101F800001804E1C25F07F454FEA082BABF5004B36
:101F9000BF5DC8EB070705FB07F70BEB2747BFB291
:101FA00019F801804FEA082BABF5004B19F80690A1
:101FB000C8EB090808FB05F80BEB284B0FFA8BFB65
:101FC0000FFA87F8C8EB0B0B4FEA00181FFA88F8D6
:101FD00008FB0BFB07EB2B47BFB21FFA87F8A2F8F1
:101FE0001E8011F80A104FEA0129A9F5004916F8D8
:101FF0000A60711A01FB05F109EB2141D182E11858
:102000000FFA88F808F500484FEA282881F83C8044
:1020100005A9595C61B1A7F50047B4F91E5005F553
:1020200000450D4105FA01F17940A2F8401003E0A6
:10203000A7F50047A2F84070009D284480B2013304
:102040000CF1040C0232042B7FF477AF07B0BDE82B
:10205000F08F00BFF4880200A4880200059A0200F5
:102060002DE9F00F4FF07F49B9FBF3F9581EDBB3B0
:102070004FEA213C0CEB0C2C1D4B9C440CF201183C
:102080004FEA011A1FFA8AFA0023190E1CF8017090
:102090004E1C23F07F454FEA072BABF5004B1CF895
:1020A0000640E41B05FB04F40BEB2444A4B218F82F
:1020B0000110A4F500474FEA012BABF5004B18F8CF
:1020C0000660711A01FB05F50BEB25452DB224B214
:1020D0002C1B0AFB04F407EB244422F8024B4B446C
:1020E0000138B0F1FF3FD0D1BDE8F00F704700BF1D
:1020F000F4880200014B1868704700BFA02600203A
:10210000704700BF044B186800EB800000EB8000B4
:10211000024B1B68184470476C270020982600204B
:10212000704700BF012815D10B4B93F8503023B1F5
:10213000094B002283F850209A65084BD3F89C2263
:1021400002F0030103EB81010020C1F88C0201328F
:10215000C3F89C22704700BF08ECFF1F080C00204A
:10216000014B186840007047E80B0020704700BF23
:10217000014B18688000704764190020012802D1C3
:102180000022014B1A747047E0F1FF1F704700BF37
:10219000014B18688000704788090020012802D18F
:1021A0000022014B1A74704710150020704700BFC1
:1021B0000C4B00221A605A60012199609A73D973FE
:1021C00002211974084B1A705A609960DA601A611A
:1021D000DA611A75FF2159759975D9751A765A768B
:1021E0009A767047A8010020B4080020014B1868B7
:1021F000704700BFCCF8FF1F012802D10022014B1D
:102200001A707047B4080020704700BF0378012B94
:1022100007D14388082B04D1024B1A7882F00102BF
:102220001A707047B4080020014B186840007047CE
:102230001C080020704700BF014B186880007047E1
:10224000B0F3FF1F704700BF704700BF014B186815
:10225000704700BFEC0B0020704700BF0378012BD4
:102260004BD14388013B072B5ED8DFE803F0041E07
:102270005D385D5D5D402D4B5A69531C032BA8BF33
:1022800003236FF002018B42B8BF0B469A424BD03A
:10229000264A5361264B9A6E02F0030103EB81013B
:1022A0000020886501329A667047204B5A69531E98
:1022B000032BA8BF03236FF002018B42B8BF0B466C
:1022C0009A4231D0194A5361194B9A6E02F00301B8
:1022D00003EB81010020886501329A667047144B38
:1022E00093F8282082F0010283F828207047104BD1
:1022F0001A7882F001021A7070474388042B13D1B8
:102300000C4A00230C48195842F8041F1833B3F53F
:10231000587FF8D1064B9A6E02F0030103EB81015E
:102320000120886502449A66704700BFB0260020ED
:102330003CF8FF1FAC26002068BC0200014B186867
:10234000704700BF40090020704700BF704700BFC2
:10235000014B1868704700BF28080020704700BF75
:10236000012802D10022014B1A71704798F3FF1F18
:102370000378012B2FD14388013B072B2BD8DFE8B3
:1023800003F0040F2A1A2A2A2A25134B1A6802F18D
:10239000200383F308039A421DD00F4A136070474D
:1023A0000D4B1A68A2F1200383F308039A4212D05E
:1023B000094A13607047094B1B781BB90122074B70
:1023C0001A7070470022054B1A707047034B1A7938
:1023D00082F001021A717047B40E002098F3FF1FBB
:1023E000014B1868800070479C260020704700BF92
:1023F00070B4184B00210A4601260225032404204C
:1024000043F82C2C43F8282C43F8242C43F8202C98
:1024100043F8182C43F8142C43F8102C03F80C1C28
:1024200003F8042C03F8036C03F8025C03F8014C76
:1024300043F8080C01312C330429E1D1064B00226A
:102440001A60D96B01391A719A60D9601A615A61A0
:1024500070BC7047B4270020702700200020704710
:102460000020704700207047012802D10022014B54
:102470001A71704770270020704700BF4388082BEF
:1024800004D1034B1A7982F001021A71704700BF20
:1024900070270020F0B400213D4BA3F864103D4BA1
:1024A00003F5167604463A4D0F461A7D062A5DD886
:1024B000DFE802F0041B26313C4752004A5902F083
:1024C0000F02B5F864C042EA0C1C1FFA8CFC1FFA1C
:1024D0008CF212F4704F19BF04F801CBA5F86470A8
:1024E00042F47062A5F8642040E0B5F864201AB1A7
:1024F00004F8012BA5F864704A5904F8012B35E063
:10250000B5F864201AB104F8012BA5F864704A5993
:1025100004F8012B2AE0B5F864201AB104F8012B65
:10252000A5F864704A5924F8022B1FE0B5F864201E
:102530001AB104F8012BA5F864704A5924F8022B4B
:1025400014E0B5F864201AB104F8012BA5F8647002
:102550004A5944F8042B09E0B5F864201AB104F88C
:10256000012BA5F864704A5944F8042B1833043140
:10257000B3429AD1064BB3F864302BB104F8013B57
:102580000022034BA3F86420201AF0BC704700BF60
:1025900074EEFF1FB0D4FF1F2DE9F00F814600231A
:1025A0006B4A13836B4A6A4C1D46117D06294CD831
:1025B000DFE801F004161F28313A4300195901F0F1
:1025C0000F01268B41EA0616B6B2B1B211F4704F74
:1025D00019BF00F8016B258341F47061218334E059
:1025E000218B11B100F8011B2583195900F8011B3B
:1025F0002BE0218B11B100F8011B2583195900F83C
:10260000011B22E0218B11B100F8011B2583195910
:1026100020F8021B19E0218B11B100F8011B258362
:10262000195920F8021B10E0218B11B100F8011B91
:102630002583195940F8041B07E0218B11B100F8DC
:10264000011B2583195940F8041B18320433182B39
:10265000ABD13F4B1B8B23B100F8013B00223C4B1D
:102660001A83C9EB00003A4B03F11C0503F5047B08
:102670000026B2462C4609EB000C2E82364A6146F3
:102680005346177D062F51D8DFE807F0041B242D91
:10269000363F4800E75807F00F07B4F8108047EAC4
:1026A0000817BFB21FFA87F8A4F8108018F4704F0B
:1026B00019BF01F8017B268248F47068A4F81080E5
:1026C00034E0278A17B101F8017B2682E75801F828
:1026D000017B2BE0278A17B101F8017B2682E7589E
:1026E00001F8017B22E0278A17B101F8017B2682DD
:1026F000E75821F8027B19E0278A17B101F8017B1E
:102700002682E75821F8027B10E0278A17B101F8EA
:10271000017B2682E75841F8047B07E0278A17B13E
:1027200001F8017B2682E75841F8047B1832043314
:10273000102BA6D1238A13B101F8013B2682CCEBE2
:102740000101084414355D4594D1BDE8F00F704790
:10275000080C0020C0E1020068E502002DE9F00F3E
:102760008246DFF814C100200646DFF8109109F513
:10277000227564460AEB0008ACF86C604B46414693
:1027800000221F7D062F5ED8DFE807F0041C2732E9
:102790003D485300A75807F00F07B4F86CB047EA5C
:1027A0000B17BFB21FFA87FBA4F86CB01BF4704F75
:1027B00019BF01F8017BA4F86C604BF4706BA4F8AE
:1027C0006CB040E0B4F86C701FB101F8017BA4F864
:1027D0006C60A75801F8017B35E0B4F86C701FB14C
:1027E00001F8017BA4F86C60A75801F8017B2AE08E
:1027F000B4F86C701FB101F8017BA4F86C60A758A5
:1028000021F8027B1FE0B4F86C701FB101F8017B66
:10281000A4F86C60A75821F8027B14E0B4F86C703F
:102820001FB101F8017BA4F86C60A75841F8047B44
:1028300009E0B4F86C701FB101F8017BA4F86C607A
:10284000A75841F8047B18330432AB4299D1B4F84D
:102850006C301BB101F8013BA4F86C60C8EB0101BE
:1028600008440CF5117C034B9C4582D1BDE8F00F68
:10287000704700BF3CF8FF1FB4F3FF1FC4D1FF1F18
:102880002DE9F00F82463B4900200646DFF8EC8038
:1028900008F1F00581460AEB000C0E8543466446BC
:1028A0004A461F7D062F51D8DFE807F0041B242D70
:1028B000363F48008F5807F00F07B1F828B047EAB5
:1028C0000B17BFB21FFA87FBA1F828B01BF4704F9B
:1028D00019BF04F8017B0E854BF4706BA1F828B08A
:1028E00034E00F8D17B104F8017B0E858F5804F882
:1028F000017B2BE00F8D17B104F8017B0E858F58FB
:1029000004F8017B22E00F8D17B104F8017B0E85DE
:102910008F5824F8027B19E00F8D17B104F8017B62
:102920000E858F5824F8027B10E00F8D17B104F844
:10293000017B0E858F5844F8047B07E00F8D17B19B
:1029400004F8017B0E858F5844F8047B1833043259
:10295000AB42A6D10B8D13B104F8013B0E85CCEB35
:10296000040420446031044B994294D1BDE8F00F37
:10297000704700BF08F2FF1F88F3FF1FE0A70200A7
:102980002DE9F00FDFF808814FF0000C3E484FF0C2
:102990003F093E4A58F8045C05EB0804C5F13F06C0
:1029A000402D6AD0631E411E264413F8014F01F8E2
:1029B000014FB342F9D1C5F1400303444146002D14
:1029C0004ED01D4411F8014B03F8014BAB42F9D135
:1029D00046E013F800A0C3EB070B116801F80BA049
:1029E0001168194401F805A04FEADA1B4BEACA1B2B
:1029F0000AF00201C9B24BEA41110AF0040B5FFA76
:102A00008BFB41EACB0B0AF00801C9B24BEA41014A
:102A10000AF0100B5FFA8BFB41EA6B0B0AF0200106
:102A2000C9B24BEAE1010AF0400A5FFA8AFA41EAC8
:102A30006A1A5FFA8AFAC3EB060B116801F80BA059
:102A40001168194401F804A0013BB3F1FF3FC0D164
:102A50000CF1100C08F58478BCF1400F9AD10FE00E
:102A60000CF10805ED10ED014FEAEC04E4014B46D2
:102A700005F17F0704F17F06ABE741460346A0E777
:102A8000BDE8F00F704700BFD01400206035002073
:102A9000FC1500202DE9F00F8246444B03F1240C75
:102AA00000200646DFF80C9109F5E47564460AEB50
:102AB0000008ACF84C604B46414600221F7D062FB3
:102AC0005ED8DFE807F0041C27323D485300A758C2
:102AD00007F00F07B4F84CB047EA0B17BFB21FFA64
:102AE00087FBA4F84CB01BF4704F19BF01F8017BB1
:102AF000A4F84C604BF4706BA4F84CB040E0B4F810
:102B00004C701FB101F8017BA4F84C60A75801F884
:102B1000017B35E0B4F84C701FB101F8017BA4F8DB
:102B20004C60A75801F8017B2AE0B4F84C701FB143
:102B300001F8017BA4F84C60A75821F8027B1FE044
:102B4000B4F84C701FB101F8017BA4F84C60A75891
:102B500021F8027B14E0B4F84C701FB101F8017B3E
:102B6000A4F84C60A75841F8047B09E0B4F84C7015
:102B70001FB101F8017BA4F84C60A75841F8047B11
:102B800018330432AB4299D1B4F84C301BB101F880
:102B9000013BA4F84C60C8EB010108440CF5847CAF
:102BA000034B9C4582D1BDE8F00F70471015002003
:102BB0005419002050A90200F0B40023324A938136
:102BC00032490246304D1E460C7D062C4CD8DFE8BB
:102BD00004F004161F28313A43005F5907F00F072D
:102BE000AC8947EA0417BFB2BCB214F4704F19BFE6
:102BF00002F8017BAE8144F47064AC8134E0AC89AE
:102C000014B102F8014BAE815C5902F8014B2BE084
:102C1000AC8914B102F8014BAE815C5902F8014B4A
:102C200022E0AC8914B102F8014BAE815C5922F864
:102C3000024B19E0AC8914B102F8014BAE815C592A
:102C400022F8024B10E0AC8914B102F8014BAE81BE
:102C50005C5942F8044B07E0AC8914B102F8014B0F
:102C6000AE815C5942F8044B183104330C2BABD1C4
:102C7000054B9B8923B102F8013B0021024B99814E
:102C8000101AF0BC704700BFA801002050E20200FB
:102C900010B44388202B47D1254B1B78EBB1254A34
:102CA000234BDB6813449B7B808852F82310022B54
:102CB0003AD801FA80F003EB43041F4A02EBC40444
:102CC0006268904203DBA2689042B8BF024691421C
:102CD0002AD0184941F8232026E0B0F90430144ADC
:102CE000D16819445068814204DB92689142A8BFC0
:102CF000114600E001460E4AD16012691A44002BC9
:102D000007DA012A0EDC421C9142B4BF00220122E4
:102D100008E0002A06DD064B9A68013A9142CCBFD2
:102D200002220122024B1A615DF8044B704700BF7A
:102D3000B4080020A801002050E202002DE9F00FA5
:102D40008246DFF814C100200646DFF8109109F52D
:102D5000167564460AEB0008ACF864604B464146C1
:102D600000221F7D062F5ED8DFE807F0041C273203
:102D70003D485300A75807F00F07B4F864B047EA7E
:102D80000B17BFB21FFA87FBA4F864B01BF4704F97
:102D900019BF01F8017BA4F864604BF4706BA4F8D0
:102DA00064B040E0B4F864701FB101F8017BA4F88E
:102DB0006460A75801F8017B35E0B4F864701FB176
:102DC00001F8017BA4F86460A75801F8017B2AE0B0
:102DD000B4F864701FB101F8017BA4F86460A758CF
:102DE00021F8027B1FE0B4F864701FB101F8017B89
:102DF000A4F86460A75821F8027B14E0B4F864706A
:102E00001FB101F8017BA4F86460A75841F8047B66
:102E100009E0B4F864701FB101F8017BA4F86460A4
:102E2000A75841F8047B18330432AB4299D1B4F867
:102E300064301BB101F8013BA4F86460C8EB0101E8
:102E400008440CF5127C034B9C4582D1BDE8F00F81
:102E5000704700BFC82C002038280020DCCAFF1FA4
:102E6000012808D1044B00221A710449088F4887B1
:102E70009A6183F834207047A80B002008ECFF1FEC
:102E80002DE9F00F8246444B03F1240C0020064646
:102E9000DFF80C9109F5167564460AEB0008ACF8EA
:102EA00064604B46414600221F7D062F5ED8DFE856
:102EB00007F0041C27323D485300A75807F00F07BE
:102EC000B4F864B047EA0B17BFB21FFA87FBA4F847
:102ED00064B01BF4704F19BF01F8017BA4F8646063
:102EE0004BF4706BA4F864B040E0B4F864701FB1A8
:102EF00001F8017BA4F86460A75801F8017B35E074
:102F0000B4F864701FB101F8017BA4F86460A7589D
:102F100001F8017B2AE0B4F864701FB101F8017B6D
:102F2000A4F86460A75821F8027B1FE0B4F864702D
:102F30001FB101F8017BA4F86460A75821F8027B57
:102F400014E0B4F864701FB101F8017BA4F8646068
:102F5000A75841F8047B09E0B4F864701FB101F888
:102F6000017BA4F86460A75841F8047B183304324D
:102F7000AB4299D1B4F864301BB101F8013BA4F81D
:102F80006460C8EB010108440CF5FC7C034B9C45D4
:102F900082D1BDE8F00F7047D0F8FF1FD4000020A9
:102FA0003CE60200F0B400213D4BA3F890103D4BED
:102FB00003F5587604463A4D0F461A7D062A5DD829
:102FC000DFE802F0041B26313C4752004A5902F068
:102FD0000F02B5F890C042EA0C1C1FFA8CFC1FFAD5
:102FE0008CF212F4704F19BF04F801CBA5F8907061
:102FF00042F47062A5F8902040E0B5F890201AB134
:1030000004F8012BA5F890704A5904F8012B35E01B
:10301000B5F890201AB104F8012BA5F890704A5920
:1030200004F8012B2AE0B5F890201AB104F8012B1E
:10303000A5F890704A5924F8022B1FE0B5F89020AB
:103040001AB104F8012BA5F890704A5924F8022B04
:1030500014E0B5F890201AB104F8012BA5F890708F
:103060004A5944F8042B09E0B5F890201AB104F845
:10307000012BA5F890704A5944F8042B18330431F9
:10308000B3429AD1064BB3F890302BB104F8013B10
:103090000022034BA3F89020201AF0BC704700BF19
:1030A000B026002068BC0200F0B40023324A13842A
:1030B000324A0446304D1E46117D06294CD8DFE8C1
:1030C00001F004161F28313A43005F5907F00F073B
:1030D000298C47EA0117BFB2B9B211F4704F19BF7A
:1030E00004F8017B2E8441F47061298434E0298C3A
:1030F00011B104F8011B2E84595904F8011B2BE06F
:10310000298C11B104F8011B2E84595904F8011BB4
:1031100022E0298C11B104F8011B2E84595924F89E
:10312000021B19E0298C11B104F8011B2E84595996
:1031300024F8021B10E0298C11B104F8011B2E8425
:10314000595944F8041B07E0298C11B104F8011BFC
:103150002E84595944F8041B18320433202BABD168
:10316000054B1B8C23B104F8013B0022024B1A844F
:10317000201AF0BC704700BFE800002044E00200C5
:10318000F0B40021344B9986344B03F59C76044609
:10319000314D0F461A7D062A4FD8DFE802F0041998
:1031A000222B343D46004A5902F00F02B5F834C0D4
:1031B00042EA0C1C1FFA8CFC1FFA8CF212F4704FBE
:1031C00019BF04F801CBAF8642F47062AA8634E0DE
:1031D000AA8E12B104F8012BAF864A5904F8012BCC
:1031E0002BE0AA8E12B104F8012BAF864A5904F8DD
:1031F000012B22E0AA8E12B104F8012BAF864A59A6
:1032000024F8022B19E0AA8E12B104F8012BAF8624
:103210004A5924F8022B10E0AA8E12B104F8012BAF
:10322000AF864A5944F8042B07E0AA8E12B104F87D
:10323000012BAF864A5944F8042B18330431B342AA
:10324000A8D1054B9B8E23B104F8013B0022024B11
:103250009A86201AF0BC7047B40E0020DCDD020014
:103260002DE9F00F8246DFF814C100200646DFF892
:10327000109109F58A6564460AEB0008ACF8B8605D
:103280004B46414600221F7D062F5ED8DFE807F03F
:10329000041C27323D485300A75807F00F07B4F825
:1032A000B8B047EA0B17BFB21FFA87FBA4F8B8B053
:1032B0001BF4704F19BF01F8017BA4F8B8604BF400
:1032C000706BA4F8B8B040E0B4F8B8701FB101F862
:1032D000017BA4F8B860A75801F8017B35E0B4F889
:1032E000B8701FB101F8017BA4F8B860A75801F8C5
:1032F000017B2AE0B4F8B8701FB101F8017BA4F893
:10330000B860A75821F8027B1FE0B4F8B8701FB16D
:1033100001F8017BA4F8B860A75821F8027B14E0FB
:10332000B4F8B8701FB101F8017BA4F8B860A758D1
:1033300041F8047B09E0B4F8B8701FB101F8017BD3
:10334000A4F8B860A75841F8047B18330432AB42A4
:1033500099D1B4F8B8301BB101F8013BA4F8B860BA
:10336000C8EB010108440CF5367C034B9C4582D127
:10337000BDE8F00F704700BFC82400206819002086
:1033800034CDFF1F012808D1044B00221A710449D3
:10339000088F48879A6183F83420704710F1FF1F27
:1033A00008ECFF1F2DE9F00F82B001900022A84B1E
:1033B0001A83A84B80461146A54C16461D46187820
:1033C000062800F2A480DFE800F004253A4F647973
:1033D0008E00208B18B100F00F00268309E098F8CA
:1033E000007038096FEA07576FEA1757278308F10B
:1033F0000108052A00F28B8055F8107CB84204DBE6
:1034000055F80C7CB842B8BF07460859B8427ED080
:103410000F517CE0268398F90070052A0CD853F8E8
:10342000100C874204DB53F80C0C8742B8BF3846B7
:103430000D59854218BF085108F1010867E026833D
:1034400098F80070052A0CD853F8100C874204DB5A
:1034500053F80C0C8742B8BF38460D59854218BF47
:10346000085108F1010852E02683B8F90070052AD6
:103470000CD853F8100C874204DB53F80C0C87422D
:10348000B8BF38460D59854218BF085108F10208E7
:103490003DE02683B8F80070052A0CD853F8100CCC
:1034A000874204DB53F80C0C8742B8BF38460D59ED
:1034B000854218BF085108F1020828E02683D8F891
:1034C0000070052A0CD853F8100C874204DB53F81F
:1034D0000C0C8742B8BF38460D59854218BF0851B9
:1034E00008F1040813E02683D8F80070052A0CD8E8
:1034F00053F8100C874204DB53F80C0C8742B8BF1A
:1035000038460D59854218BF085108F104080132A8
:1035100018330431062A7FF451AFDDF804B0CBEB49
:1035200008084B4B03F11C054FF0000CE1462C46FC
:10353000019F4744A5F810C0474A02F114033846DA
:1035400049464A469A461E78062E00F2B080DFE8C9
:1035500006F004293F546A859A00268A26B106F0AF
:103560000F06A4F810C00AE090F800B04FEA1B164E
:103570006FEA0B5B6FEA1B5BA4F810B00130032A03
:1035800000F295805AF810BC5E4504DB5AF80CBC7A
:103590005E45B8BFB34666585E4500F0888044F883
:1035A00001B084E0A4F810C090F90060032A0DD89F
:1035B00053F810BC5E4504DB53F80CBC5E45B8BF45
:1035C000B34666585E4518BF44F801B001306EE05E
:1035D000A4F810C00678032A0DD853F810BC5E4535
:1035E00004DB53F80CBC5E45B8BFB34666585E4575
:1035F00018BF44F801B0013059E0A4F810C0B0F988
:103600000060032A0DD853F810BC5E4504DB53F864
:103610000CBC5E45B8BFB34666585E4518BF44F85B
:1036200001B0023043E0A4F810C00688032A0DD888
:1036300053F810BC5E4504DB53F80CBC5E45B8BFC4
:10364000B34666585E4518BF44F801B002302EE01C
:10365000080C0020D4E1020068E50200A4F810C0C4
:103660000668032A0DD853F810BC5E4504DB53F8F6
:103670000CBC5E45B8BFB34666585E4518BF44F8FB
:1036800001B0043013E0A4F810C00668032A0DD876
:1036900053F810BC5E4504DB53F80CBC5E45B8BF64
:1036A000B34666585E4518BF44F801B00430013295
:1036B00018330431042A7FF445AFC01B804414350D
:1036C000044A95427FF433AF404602B0BDE8F00FA4
:1036D000704700BF180E00202DE9F00F81466348A7
:1036E0004FF0000C6546E04609EB0C070585604A83
:1036F00002F114033C46414642469A461E78062E85
:1037000000F2A280DFE806F004273C5065798D00C6
:10371000068D1EB106F00F0605850AE094F800B08C
:103720004FEA1B166FEA0B5B6FEA1B5BA0F828B031
:103730000134092A00F288805AF810BC5E4504DB87
:103740005AF80CBC5E45B8BFB34646585E457BD0C0
:1037500040F801B078E0058594F90060092A0DD899
:1037600053F810BC5E4504DB53F80CBC5E45B8BF93
:10377000B34646585E4518BF40F801B0013463E0D7
:1037800005852678092A0DD853F810BC5E4504DB60
:1037900053F80CBC5E45B8BFB34646585E4518BFEB
:1037A00040F801B001344FE00585B4F90060092A02
:1037B0000DD853F810BC5E4504DB53F80CBC5E45D5
:1037C000B8BFB34646585E4518BF40F801B0023452
:1037D0003AE005852688092A0DD853F810BC5E45C5
:1037E00004DB53F80CBC5E45B8BFB34646585E4593
:1037F00018BF40F801B0023426E005852668092A82
:103800000DD853F810BC5E4504DB53F80CBC5E4584
:10381000B8BFB34646585E4518BF40F801B00434FF
:1038200012E005852668092A0DD853F810BC5E45BC
:1038300004DB53F80CBC5E45B8BFB34646585E4542
:1038400018BF40F801B004340132183304310A2A99
:103850007FF453AFE41BA4446030064A90427FF4E7
:1038600043AF6046BDE8F00F704700BF08F2FF1F8E
:10387000E0A7020088F3FF1F2DE9F0010022634B4F
:103880009A81634B04461146604E94461F461D784C
:10389000062D00F2B180DFE805F0042A41576E845E
:1038A0009A00B58925B105F00F05A6F80CC00AE00D
:1038B00094F800804FEA18156FEA08586FEA185814
:1038C000A6F80C800134022A00F2968057F8108C7A
:1038D000454505DB57F80C7CBD42B4BFA846B84649
:1038E0008D59454500F0888041F8068084E0A6F8AF
:1038F0000CC094F90050022A0ED853F8108C45459C
:1039000005DB53F80C7CBD42B4BFA846B8468D59C0
:10391000454518BF41F8068001346DE0A6F80CC09B
:103920002578022A0ED853F8108C454505DB53F84C
:103930000C7CBD42B4BFA846B8468D59454518BF5A
:1039400041F80680013457E0A6F80CC0B4F90050E5
:10395000022A0ED853F8108C454505DB53F80C7C31
:10396000BD42B4BFA846B8468D59454518BF41F879
:103970000680023440E0A6F80CC02588022A0ED842
:1039800053F8108C454505DB53F80C7CBD42B4BFA1
:10399000A846B8468D59454518BF41F806800234FF
:1039A0002AE0A6F80CC02568022A0ED853F8108C1D
:1039B000454505DB53F80C7CBD42B4BFA846B8466C
:1039C0008D59454518BF41F80680043414E0A6F827
:1039D0000CC02568022A0ED853F8108C454505DB2B
:1039E00053F80C7CBD42B4BFA846B8468D59454536
:1039F00018BF41F806800434013218330431032A19
:103A00007FF444AF201ABDE8F0017047A801002000
:103A100064E202002DE9F0010022624B1A84624B3D
:103A2000054611465F4E94461F461C78062C00F250
:103A3000AF80DFE804F0042A41576E849900348C8B
:103A400024B104F00F04A6F820C00AE095F8008025
:103A50004FEA18146FEA08586FEA1858A6F8208041
:103A60000135072A00F2948057F8108C444505DB95
:103A700057F80C7CBC42B4BFA046B8468C594445AC
:103A800000F0868041F8068082E0A6F820C095F913
:103A90000040072A0ED853F8108C444505DB53F834
:103AA0000C7CBC42B4BFA046B8468C59444518BFF4
:103AB00041F8068001356BE0A6F820C02C78072A73
:103AC0000ED853F8108C444505DB53F80C7CBC42EF
:103AD000B4BFA046B8468C59444518BF41F806808B
:103AE000013555E0A6F820C0B5F90040072A0ED8E8
:103AF00053F8108C444505DB53F80C7CBC42B4BF32
:103B0000A046B8468C59444518BF41F80680023596
:103B10003EE0A6F820C02C88072A0ED853F8108C57
:103B2000444505DB53F80C7CBC42B4BFA046B84604
:103B30008C59444518BF41F80680023528E0A6F8A4
:103B400020C0D5F80080072A0CD853F8104CA045A7
:103B500004DB53F80C4CA045B8BF44468F59A7422C
:103B600018BF8C51043513E0A6F820C0D5F80080AA
:103B7000072A0CD853F8104CA04504DB53F80C4C22
:103B8000A045B8BF44468F59A74218BF8C51043591
:103B9000013218330431082A7FF446AF281ABDE8F1
:103BA000F0017047E800002058E002002DE9F00124
:103BB0000022624B9A86624B054611465F4E944640
:103BC0001F461C78062C00F2AF80DFE804F0042AC0
:103BD00041576E849900B48E24B104F00F04A6F806
:103BE00034C00AE095F800804FEA18146FEA0858CC
:103BF0006FEA1858A6F8348001350C2A00F2948038
:103C000057F8108C444505DB57F80C7CBC42B4BF18
:103C1000A046B8468C59444500F0868041F806809D
:103C200082E0A6F834C095F900400C2A0ED853F86B
:103C3000108C444505DB53F80C7CBC42B4BFA04655
:103C4000B8468C59444518BF41F8068001356BE0F1
:103C5000A6F834C02C780C2A0ED853F8108C4445A2
:103C600005DB53F80C7CBC42B4BFA046B8468C5967
:103C7000444518BF41F80680013555E0A6F834C028
:103C8000B5F900400C2A0ED853F8108C444505DBDA
:103C900053F80C7CBC42B4BFA046B8468C5944458E
:103CA00018BF41F8068002353EE0A6F834C02C88E3
:103CB0000C2A0ED853F8108C444505DB53F80C7CC5
:103CC000BC42B4BFA046B8468C59444518BF41F821
:103CD0000680023528E0A6F834C0D5F800800C2A0A
:103CE0000CD853F8104CA04504DB53F80C4CA045FD
:103CF000B8BF44468F59A74218BF8C51043513E012
:103D0000A6F834C0D5F800800C2A0CD853F8104C13
:103D1000A04504DB53F80C4CA045B8BF44468F596E
:103D2000A74218BF8C5104350132183304310D2AD3
:103D30007FF446AF281ABDE8F0017047B40E0020AA
:103D4000F0DD02002DE9F00F82B00190DFF8DCC257
:103D50004FF000084546C1466046019F4744ACF815
:103D6000B850B04901F114033C4649464A469A46C8
:103D70001E78062E00F2AB80DFE806F0042A4055DC
:103D80006B809500B0F8B86026B106F00F06A0F879
:103D9000B8500AE094F800B04FEA1B166FEA0B5BCC
:103DA0006FEA1B5BA0F8B8B001342D2A00F28F80B7
:103DB0005AF810BC5E4504DB5AF80CBC5E45B8BF2F
:103DC000B34646585E4500F0828040F801B07EE080
:103DD000A0F8B85094F900602D2A0DD853F810BC03
:103DE0005E4504DB53F80CBC5E45B8BFB34646588D
:103DF0005E4518BF40F801B0013468E0A0F8B85043
:103E000026782D2A0DD853F810BC5E4504DB53F8F4
:103E10000CBC5E45B8BFB34646585E4518BF40F877
:103E200001B0013453E0A0F8B850B4F900602D2A75
:103E30000DD853F810BC5E4504DB53F80CBC5E454E
:103E4000B8BFB34646585E4518BF40F801B00234CB
:103E50003DE0A0F8B85026882D2A0DD853F810BCA4
:103E60005E4504DB53F80CBC5E45B8BFB34646580C
:103E70005E4518BF40F801B0023428E0A0F8B85001
:103E800026682D2A0DD853F810BC5E4504DB53F884
:103E90000CBC5E45B8BFB34646585E4518BF40F8F7
:103EA00001B0043413E0A0F8B85026682D2A0DD8CC
:103EB00053F810BC5E4504DB53F80CBC5E45B8BF3C
:103EC000B34646585E4518BF40F801B0043401328D
:103ED000183304312E2A7FF44AAFE41BA04480F843
:103EE00084520368042B02D10CF2852309E04FF0C1
:103EF000010180F885120CF287234FF0020280F84E
:103F000086225A1C4FF003041C70017B072960D8DD
:103F1000DFE801F0040404040C1D273E90F8CB40B8
:103F20008C4256D09A1C0421597052E00B225A70D0
:103F30000D229A700E22DA700C221A7110225A7118
:103F400011229A7103F108020F21D97141E0122266
:103F50005A7013229A701422DA705A1D15211971A1
:103F600037E016225A7017229A701822DA70192236
:103F70001A711A225A711B229A711C22DA711D229F
:103F80001A721E225A7203F10B021F21997220E04D
:103F90004FF0200159704FF021029A704FF0220427
:103FA000DC7023221A7124225A7125229A71282248
:103FB000DA712C221A7226225A7227229A72292228
:103FC000DA722A221A732B225A7303F10F022D215F
:103FD000997305231370037D032B01D9531C04E04F
:103FE00006235370D31C0721917008221A700A22ED
:103FF0005A70CCEB0303A3F28223C0F880320CF595
:10400000367CDFF82CB0DC457FF4A6AEABF536632A
:10401000D3F88022013A044BDA60404602B0BDE892
:10402000F00F704734CDFF1F10F1FF1F68190020FB
:10403000C8240020704700BF10F5077204D000F5B7
:104040001F73183B9A42FCD1704700BF704700BFF6
:10405000704700BF704700BF10F1280204D000F580
:10406000D473603B9A42FCD1704700BF10F1240228
:1040700005D000F24443A3F584739A42FBD1704704
:10408000704700BF704700BF704700BF10F12402A7
:1040900005D000F60403A3F5FC739A42FBD17047E8
:1040A000704700BF704700BF704700BF704700BF38
:1040B000704700BF704700BF704700BF704700BF28
:1040C00070B50378012B42D14388013B072B00F2E6
:1040D0008F80DFE803F004128D208D8D8D28454BF5
:1040E000D3F89C2202F0030103EB81010020C1F808
:1040F0008C020132C3F89C2270BD3E4BD3F89C2247
:1041000002F0030103EB81010120C1F88C0202449B
:10411000C3F89C2270BD374B93F84C2282F0010209
:1041200083F84C2270BD334B93F84C323BB1314B8A
:1041300093F8642282F0010283F8642270BD2D4B53
:1041400093F8502282F0010283F8502270BD438818
:10415000042B4DD1284A002152E8003F002BFBD10F
:1041600042E80013002BF7D1BFF35F8F2148047D95
:104170001C3000214FF4FA721EF0FAFA012C02D022
:10418000022C15D023E01B4E06F1300406F509760B
:10419000082528461AF09CF880F3030054F8142CE4
:1041A000904218BF44F8140C1434B442F1D10EE01C
:1041B000104901F1300301F50971012053F8082C71
:1041C000012A18BF43F8080C14338B42F6D1BFF311
:1041D0005F8F084B0021C3F8A412D3F89C2202F091
:1041E000030003EB8000C0F88C120132C3F89C225C
:1041F00070BD00BF080C0020AC0E00202DE9F04F70
:1042000085B0DFF860914FF0000BDFF85CA159F842
:10421000044C09EB4402C4F10403052C00F099801E
:104220004F48811E32F8020B21F8020F013BB3F117
:10423000FF3FF7D1C4F10502494B03EB42024D4663
:10424000631E44B1294631F8020B22F8020B013BF0
:10425000B3F1FF3FF7D155F80C3C5B0F0293404898
:104260000688B60AC6F13F0650465946324617F050
:104270000DFBDDF80880D844504641463246032302
:1042800017F032FB364F08F118044546CDF80C8084
:10429000A04637F8024FA40AC4F13F04504629460D
:1042A0002246082317F0F2FAB44206D150462946B6
:1042B0002246022317F018FB10E0B44207DA331B42
:1042C000504629462246013317F00EFB06E0A31B99
:1042D000504629463246013317F006FB083545455E
:1042E00001D02646D5E7DDF80C8008F118081C4BF4
:1042F0001D89AD0AC5F13F05022300935046414692
:104300002A46029EC6F1080317F084F9AC4206D192
:10431000504641462246032317F0E6FA10E0A54234
:1043200007DA631B504641462A46013317F0DCFA90
:1043300006E02B1B504641462246013317F0D4FAC3
:104340000BF1200B09F11809BBF1800F7FF45FAF6F
:1043500003E04D46631E024A74E705B0BDE8F08FE6
:10436000A42600209CF0FF1F603500202DE9F04FAF
:1043700087B02D4B5C6D00232B48C218516C02AAEC
:1043800099500433102BF8D192460DF103090826F9
:10439000DFF8A480254D4FF05A0B5AF8047F07F13F
:1043A000780288FB0231D317C3EB610303EB4303AD
:1043B000A2EB830309F8013FC5F804B0AE602846BC
:1043C0001B4A52F8231017F049FD88FB0731FF17ED
:1043D000C7EB61012846013117F072FE1036382E06
:1043E000DBD10026114D4FF04208124FC5F8048072
:1043F000AE6004F08003002B28460CBF2D212B213A
:1044000017F0E2FC04F07F032846F95C17F0DCFCAF
:10441000240A1036402EE9D101A820210A46FCF7D3
:10442000E1FD07B0BDE8F08F3CF8FF1F60350020CC
:1044300038850200ACE40200ABAAAA2A2DE9F04FAD
:1044400089B000233B48C218D2F8341204AA99500C
:104450000433102BF7D1374BD3F8884210460DF1B7
:104460000B020DF10E07344E50F8043F783386FBF3
:104470000315D917C1EB650101EB4101A3EB8103E2
:1044800002F8013FBA42EFD103A860212022FCF7D5
:10449000A9FDE3B2294DA5FB0325AD0805EB850673
:1044A0009E1B4FEA142905EB4501890006EB4602E5
:1044B0009200234B0093234803310532082317F061
:1044C00087FA4FF003085FFA89F31C49A1FB031434
:1044D000A40804EB8407DF1B04EB440B4FEA8B0BAF
:1044E00007EB470A4FEA8A0A05EB4505A90006EBE8
:1044F0004606B2000AF1080300931248063108325A
:104500000BF1060317F0BCFA0F4A00920D480BF1AD
:1045100003010AF10502082317F05AFA4FEA192994
:10452000B8F1010802D025463E46CCE709B0BDE807
:10453000F08F00BF080C0020ABAAAA2ACDCCCCCCAF
:1045400058620200603500205062020008B5FCF796
:10455000B9FE08BD08B5FCF7B5FE08BD08B5FDF706
:104560002DF808BD10B5044619F0EAFD204610BD2F
:104570002DE9F00F82B001908F4B03F1240C4FF026
:1045800000084546C1466046019F4744ACF84C5080
:104590008A4A02F114033C4649464A469A461E7826
:1045A000062E00F2AB80DFE806F0042A40556B804F
:1045B0009500B0F84C6026B106F00F06A0F84C50FC
:1045C0000AE094F800B04FEA1B166FEA0B5B6FEA43
:1045D0001B5BA0F84CB00134122A00F28F805AF80D
:1045E00010BC5E4504DB5AF80CBC5E45B8BFB34650
:1045F00046585E4500F0828040F801B07EE0A0F8A9
:104600004C5094F90060122A0DD853F810BC5E4546
:1046100004DB53F80CBC5E45B8BFB34646585E4554
:1046200018BF40F801B0013468E0A0F84C5026787B
:10463000122A0DD853F810BC5E4504DB53F80CBCAD
:104640005E45B8BFB34646585E4518BF40F801B056
:10465000013453E0A0F84C50B4F90060122A0DD890
:1046600053F810BC5E4504DB53F80CBC5E45B8BF84
:10467000B34646585E4518BF40F801B002343DE0ED
:10468000A0F84C502688122A0DD853F810BC5E456D
:1046900004DB53F80CBC5E45B8BFB34646585E45D4
:1046A00018BF40F801B0023428E0A0F84C5026684A
:1046B000122A0DD853F810BC5E4504DB53F80CBC2D
:1046C0005E45B8BFB34646585E4518BF40F801B0D6
:1046D000043413E0A0F84C502668122A0DD853F881
:1046E00010BC5E4504DB53F80CBC5E45B8BFB34656
:1046F00046585E4518BF40F801B004340132183303
:104700000431132A7FF44AAFE41BA04480F8AC5074
:104710004FF0010280F8AD204FF0020380F8AE3078
:104720004FF0030B80F8AFB04FF0040280F8B020D8
:104730004FF0050380F8B1304FF0060B80F8B2B0AF
:10474000836913B90CF1B30313E0072380F8B33086
:10475000082380F8B430092380F8B5300A2380F8A4
:10476000B6300B2380F8B7300CF1B9030C2280F877
:10477000B8200D221A700E225A700F229A70102241
:10478000DA7011221A7112225A71CCEB0303A63B84
:10479000C0F8A8300CF5847C094A94457FF4F3AE48
:1047A000A2F24443D3F8CC20013A9A61404602B0C9
:1047B000BDE8F00F704700BF1015002050A902009F
:1047C000541900202DE9F00F82B00190914B03F1B4
:1047D000240C4FF000084546C1466046019F4744FF
:1047E000ACF864508C4A02F114033C4649464A46F0
:1047F0009A461E78062E00F2AB80DFE806F0042A07
:1048000040556B809500B0F8646026B106F00F0645
:10481000A0F864500AE094F800B04FEA1B166FEA63
:104820000B5B6FEA1B5BA0F864B00134182A00F23E
:104830008F805AF810BC5E4504DB5AF80CBC5E450C
:10484000B8BFB34646585E4500F0828040F801B0DC
:104850007EE0A0F8645094F90060182A0DD853F84F
:1048600010BC5E4504DB53F80CBC5E45B8BFB346D4
:1048700046585E4518BF40F801B0013468E0A0F822
:1048800064502678182A0DD853F810BC5E4504DB16
:1048900053F80CBC5E45B8BFB34646585E4518BFDA
:1048A00040F801B0013453E0A0F86450B4F900605E
:1048B000182A0DD853F810BC5E4504DB53F80CBC25
:1048C0005E45B8BFB34646585E4518BF40F801B0D4
:1048D00002343DE0A0F864502688182A0DD853F819
:1048E00010BC5E4504DB53F80CBC5E45B8BFB34654
:1048F00046585E4518BF40F801B0023428E0A0F8E1
:1049000064502668182A0DD853F810BC5E4504DBA5
:1049100053F80CBC5E45B8BFB34646585E4518BF59
:1049200040F801B0043413E0A0F864502668182A57
:104930000DD853F810BC5E4504DB53F80CBC5E4543
:10494000B8BFB34646585E4518BF40F801B00434BE
:10495000013218330431192A7FF44AAFE41BA04412
:1049600080F8D8514FF0050280F8D9214FF00603A6
:1049700080F8DA31037E13B90CF2DB120DE04FF050
:10498000070B80F8DBB14FF0080280F8DC210CF552
:10499000EF724FF0090380F8DD314FF00A03137016
:1049A00090F828300BB9531C04E00B235370D31C30
:1049B0000C21917013221A7014225A7015229A70C9
:1049C0001622DA7017221A7118225A710D229A7162
:1049D0000E22DA710F221A7210225A7211229A7262
:1049E0001222DA72CCEB0303A3F5E673C0F8D431DC
:1049F0000CF5FC7CDFF824B0DC457FF4EEAEABF6C2
:104A00000403D3F8F821013A9A61404602B0BDE8A8
:104A1000F00F7047D0F8FF1F3CE60200D4000020E2
:104A20002DE9F001A24B002283F89820012283F89F
:104A30009920022283F89A20032283F89B200422E3
:104A400083F89C20052283F89D20062283F89E206F
:104A5000072283F89F20082283F8A020092283F8E8
:104A6000A1200A2283F8A2200B2283F8A3200C2283
:104A700083F8A4200D2283F8A52093F83430022B6C
:104A800044D18B4B0E2283F8A6200F2283F8A72057
:104A9000102283F8A820112283F8A920122283F87B
:104AA000AA20132283F8AB20142283F8AC2015220D
:104AB00083F8AD20162283F8AE20172283F8AF20AA
:104AC000182283F8B020192283F8B1201A2283F823
:104AD000B2201B2283F8B3201C2283F8B4201D22AD
:104AE00083F8B5201E2283F8B6201F2283F8B72052
:104AF000202283F8B820212283F8B920222283F8CB
:104B0000BA20232283F8BB20BC3300E0694B6849FC
:104B100001F198029B1AC1F89430013B664A9360F8
:104B20000022A1F89020654B05461146604E944640
:104B30001F461C78062C00F2B080DFE804F0042B3E
:104B400042586F859A00B6F8904024B104F00F04E3
:104B5000A6F890C00AE095F800804FEA18146FEAB2
:104B600008586FEA1858A6F890800135232A00F2F9
:104B7000948057F8108C444505DB57F80C7CBC42F8
:104B8000B4BFA046B8468C59444500F0868041F831
:104B9000068082E0A6F890C095F90040232A0ED83E
:104BA00053F8108C444505DB53F80C7CBC42B4BF71
:104BB000A046B8468C59444518BF41F806800135D7
:104BC0006BE0A6F890C02C78232A0ED853F8108CEE
:104BD000444505DB53F80C7CBC42B4BFA046B84644
:104BE0008C59444518BF41F80680013555E0A6F8B8
:104BF00090C0B5F90040232A0ED853F8108C4445D4
:104C000005DB53F80C7CBC42B4BFA046B8468C59B7
:104C1000444518BF41F8068002353EE0A6F890C032
:104C20002C88232A0ED853F8108C444505DB53F802
:104C30000C7CBC42B4BFA046B8468C59444518BF52
:104C400041F80680023528E0A6F890C0D5F800802B
:104C5000232A0CD853F8104CA04504DB53F80C4C15
:104C6000A045B8BF44468F59A74218BF8C510435A0
:104C700013E0A6F890C0D5F80080232A0CD853F88A
:104C8000104CA04504DB53F80C4CA045B8BF44467B
:104C90008F59A74218BF8C510435013218330431A3
:104CA000242A7FF445AF281ABDE8F001704700BF01
:104CB000B0260020562700203CF8FF1F7CBC0200D5
:104CC00070B4032800F2A180DFE800F02102212166
:104CD0004F4B002018704F4A127C83F834204E4905
:104CE0005400A518AD004E194D599D637568DD63DC
:104CF000144401EB840189681964186382420CBF73
:104D0000802101465A6D41EA02225A657DE0414BFD
:104D1000002283F89820012283F89920022283F848
:104D20009A20032283F89B20042283F89C200522EA
:104D300083F89D20062283F89E20072283F89F2077
:104D4000082283F8A020092283F8A1200A2283F8F0
:104D5000A2200B2283F8A3200C2283F8A4200D228A
:104D600083F8A52093F83430022B44D1294B0E222E
:104D700083F8A6200F2283F8A720102283F8A8200A
:104D8000112283F8A920122283F8AA20132283F883
:104D9000AB20142283F8AC20152283F8AD20162214
:104DA00083F8AE20172283F8AF20182283F8B020B2
:104DB000192283F8B1201A2283F8B2201B2283F82B
:104DC000B3201C2283F8B4201D2283F8B5201E22B4
:104DD00083F8B6201F2283F8B720202283F8B8205A
:104DE000212283F8B920222283F8BA20232283F8D3
:104DF000BB20BC3300E0094B064A02F198015B1A64
:104E0000C2F89430013B024A936070BC704700BF07
:104E10003CF8FF1FB026002074A702005627002090
:104E200003287BD8DFE800F00C020C0C3C4B00227E
:104E30001A713C49088F4887DA6283F84820704726
:104E4000394B022283F88022032283F88122042234
:104E500083F88222DB69012B10D0334A052182F8C6
:104E60008312062182F88412072182F88512022B10
:104E70001ED0032B2FD0012B46D109E02A4B18223C
:104E800083F88322062283F88422072283F885226E
:104E9000254B082283F88622092283F887220A22DA
:104EA00083F888220B2283F8892203F28A232CE0DC
:104EB0001D4B0C2283F886220D2283F887220E22B6
:104EC00083F888220F2283F88922102283F88A220D
:104ED00003F28B2319E0144B112283F8862212224D
:104EE00083F88722132283F88822142283F88922E8
:104EF000152283F88A22162283F88B22172283F840
:104F00008C2203F28D2300E0084B074A02F5207142
:104F10005B1AC2F87C32013B014AD360704700BF84
:104F20005C0B002008ECFF1F74EEFF1FFAF0FF1F60
:104F3000834A00238348195842F8041F1833B3F5F5
:104F4000587FF8D1804B002283F89820012283F803
:104F50009920022283F89A20032283F89B200422BE
:104F600083F89C20052283F89D20062283F89E204A
:104F7000072283F89F20082283F8A020092283F8C3
:104F8000A1200A2283F8A2200B2283F8A3200C225E
:104F900083F8A4200D2283F8A52093F8340002287A
:104FA00041D10E2283F8A6200F2283F8A7201022D9
:104FB00083F8A820112283F8A920122283F8AA20BE
:104FC000132283F8AB20142283F8AC20152283F837
:104FD000AD20162283F8AE20172283F8AF201822C6
:104FE00083F8B020192283F8B1201A2283F8B22066
:104FF0001B2283F8B3201C2283F8B4201D2283F8DF
:10500000B5201E2283F8B6201F2283F8B720202265
:1050100083F8B820212283F8B920222283F8BA200D
:10502000232283F8BB20494B00221A705A60DA60B1
:105030001A61012183F82810DA6283F834209A6318
:105040000421D963072119641A635A651A6783F822
:1050500074209A67082183F87C1083F87D2083F8F8
:105060007E2083F87F1083F8802083F8812083F8E6
:10507000821083F8832083F8842083F8851083F8D6
:10508000862083F8872083F8881083F8892083F8A6
:105090008A2083F88B1083F88C2083F88D200228D7
:1050A00044D1294B0E2283F8A6200F2283F8A72093
:1050B000102283F8A820112283F8A920122283F855
:1050C000AA20132283F8AB20142283F8AC201522E7
:1050D00083F8AD20162283F8AE20172283F8AF2084
:1050E000182283F8B020192283F8B1201A2283F8FD
:1050F000B2201B2283F8B3201C2283F8B4201D2287
:1051000083F8B5201E2283F8B6201F2283F8B7202B
:10511000202283F8B820212283F8B920222283F8A4
:10512000BA20232283F8BB20BC3300E0084B094A95
:105130009B1A983AC2F89430013B044A9360704736
:10514000AC26002068BC0200B02600203CF8FF1FFF
:1051500056270020482700202DE9F00F394BD3F8BF
:105160000090394A02F1440302F1F40B4FF0000AB7
:10517000DFF8E080194653F82C7C53F8242CC2B198
:1051800053F8180C3C3043F8180C53F8204C2F4DB2
:1051900005FB04F4A04207D343F818AC53F8140CF1
:1051A000C0F1010043F8140C51F8140C00FB027715
:1051B00003E043F818AC43F814AC51F8286C0337FB
:1051C00007EB4707BF00F80100EBC610B0F5705FB2
:1051D000A8BF4FF4705020EAE07088FB00C4C217EB
:1051E000C2EB2424A4EB840C11F80C2C02EB8205F6
:1051F00002EB4505254439F8155010EB4C2C10D026
:1052000002EB820002EB40000444013439F8140040
:10521000401B00FB0CF088FB00C4C017C0EB24202F
:10522000054485F310050A4840F82250243F3E44C7
:10523000F60141F8106C2C335B459BD1BDE8F00FB3
:10524000704700BF64E7FF1F7027002040420F0037
:1052500054E7FF1FABAAAA2A30B44388102B08D109
:105260002B4BB0F904109A680A4482F302029A6048
:105270004BE0202B49D1264B1B7CFBB1244AD36940
:105280008088916801EB410102EB4112283252F80B
:105290002310092B39D801FA80F403EB43051D488C
:1052A00000EBC5056868844203DBA8688442B8BF88
:1052B0002046814229D042F8230026E0B0F904308C
:1052C000134AD16919445069814204DB92699142C1
:1052D000A8BF114600E001460D4AD161126A1A4486
:1052E000002B07DA012A0EDC421C9142B4BF0022D7
:1052F000012208E0012A06DD054B9A69013A914234
:10530000CCBF03220222024B1A6230BC704700BF9E
:10531000E0F1FF1FE0A7020010B44388102B1BD15F
:10532000334B1B788088334A52F823100C2B5BD800
:1053300001FA80F003EB43042F4A02EBC4046268D5
:10534000904203DBA2689042B8BF024691424BD024
:10535000284941F8232047E0202B45D1244B1B79D5
:10536000DBB1234B1B698088224A52F823100C2B97
:105370003AD801FA80F003EB43041F4A02EBC4045D
:105380006268904203DBA2689042B8BF0246914235
:105390002AD0184941F8232026E0B0F90430144AF5
:1053A000116919449068814204DBD2689142A8BF18
:1053B000114600E001460E4A116152691A44002B61
:1053C00007DA012A0EDC421C9142B4BF00220122FE
:1053D00008E0012A06DD064BDA68013A9142CCBFAB
:1053E00003220222024B5A615DF8044B704700BF52
:1053F00098F3FF1FB40E0020DCDD020070B4032818
:105400006BD8DFE800F00D020D0D354B00221A714C
:105410003449088F4887DA629A6483F864205CE034
:1054200031482F4B1B684FF4117101FB03F14318F6
:10543000002283F86F2003F1C404052283F8C420FE
:10544000082283F8C5200D2283F8C6205A6B032A50
:1054500003D8DFE802F0050B111703F1C70216E0CD
:1054600003F1C802092583F8C75010E003F1C80210
:105470000A2583F8C7500AE003F1C8020B2583F818
:10548000C75004E003F1C8020C2583F8C750122569
:1054900015709D6C062D02F10205D4BF032613265C
:1054A000567000222A70425C1AB1012A05D06A1C8B
:1054B00006E0AA1C0421697002E0AA1C0721697099
:1054C000996C062906DC1146022001F8020B012026
:1054D00050700A46121BC3F8C02070BC704700BF52
:1054E000D408002008ECFF1FB4F3FF1F10B443885A
:1054F000102B1AD1324B1B785BB1324B5A68B0F982
:105500000430134483F308039A4256D02D4A536063
:1055100053E02C4B1A68B0F90430134483F30803AA
:105520009A424AD0274A136047E0202B45D1244BAA
:105530001B79DBB1224B1B698088224A52F8231069
:10554000072B3AD801FA80F003EB43041E4A02EB22
:10555000C4046268904203DBA2689042B8BF02466E
:1055600091422AD0174941F8232026E0B0F90430AF
:10557000134A116919449068814204DBD268914250
:10558000A8BF114600E001460D4A116152691A4454
:10559000002B07DA012A0EDC421C9142B4BF002224
:1055A000012208E0012A06DD054BDA68013A914242
:1055B000CCBF03220222024B5A615DF8044B7047B4
:1055C0008C090020E800002044E0020030B4438849
:1055D000102B0ED1364BB0F904101A680A4482F32E
:1055E00002021A602C2101FB0232D26B013ADA600E
:1055F0005BE0202B59D12E4B1B797BB32C4A1368CF
:105600002C2101FB0323183312691A4492F8282035
:10561000818853F82200032A11D800FA81F402EBA2
:105620004205244901EBC50569688C4203DBA96882
:105630008C42B8BF2146884218BF43F8221000228E
:1056400083F82820012283F82920022283F82A20C7
:10565000032283F82B2004225A6226E0B0F904309A
:10566000134A116919449068814204DBD26891425F
:10567000A8BF114600E001460D4A116152691A4463
:10568000002B07DA012A0EDC421C9142B4BF002233
:10569000012208E0012A06DD054BDA68013A914251
:1056A000CCBF03220222024B5A6130BC704700BFBC
:1056B00070270020E8E2020030B44388102B10D19C
:1056C000534BB0F904109A680A4482F302029A60BC
:1056D00002EB421203EBC202D2F8CC20013A9A61EB
:1056E00093E0202B40F09180494B1B7C002B65D030
:1056F000474A936803EB431302EBC3032433D26995
:105700001A4492F8AC20818853F82200122A11D84A
:1057100000FA81F402EB42053E4901EBC5056968D8
:105720008C4203DBA9688C42B8BF2146884218BF6F
:1057300043F82210062A68D1002283F8AC20012207
:1057400083F8AD20022283F8AE20032283F8AF2035
:10575000042283F8B020052283F8B120062283F8C2
:10576000B2209A6912B903F1B30213E0072283F859
:10577000B320082283F8B420092283F8B5200A2236
:1057800083F8B6200B2283F8B72003F1B9020C216D
:1057900083F8B8100D2111700E2151700F219170F6
:1057A0001021D1701121117112215171D21AA63A12
:1057B000C3F8A820013A164B9A6126E0B0F90430EC
:1057C000134AD16919445069814204DB92699142BC
:1057D000A8BF114600E001460D4AD161126A1A4481
:1057E000002B07DA012A0EDC421C9142B4BF0022D2
:1057F000012208E0012A06DD054B9A69013A91422F
:10580000CCBF03220222024B1A6230BC704700BF99
:105810001015002050A9020030B44388102B0DD180
:105820005E4BB0F90410D3F848220A44182AA8BFE6
:10583000182222EAE272C3F84822ACE0202B40F0A2
:10584000AA80564B93F84C32002B56D0534B93F80A
:1058500064321BB3514AD2F870328488D2F84812AD
:1058600001EB8101D2F8182202EB810151F82300EB
:10587000032B00F2908000FA84F403EB4305484ABE
:1058800002EBC5056A68944203DBAA689442B8BF7C
:10589000224690427FD041F823207CE0B0F90430CA
:1058A0003E4AD2F870121944D2F86802814205DBF0
:1058B000D2F86C229142A8BF114600E00146374A57
:1058C000C2F87012D2F874221A44002B07DA012AA7
:1058D0000FDC421C9142B4BF0022012209E0012AE0
:1058E00007DD2E4BD3F86C22013A9142CCBF032244
:1058F00002222A4BC3F874224DE0284B93F8503211
:10590000DBB1264AD2F85C32808852F82310052B8E
:1059100041D801FA80F003EB4304224A02EBC404AD
:105920006268904203DBA2689042B8BF024691428F
:1059300031D01A4941F823202DE0B0F90430174A3C
:10594000D2F85C121944D2F85402814205DBD2F835
:1059500058229142A8BF114600E001460F4AC2F802
:105960005C12D2F860221A44002B07DA012A0FDCFD
:10597000421C9142B4BF0022012209E0012A07DD46
:10598000064BD3F85822013A9142CCBF032202229F
:10599000024BC3F8602230BC704700BF080C0020E7
:1059A00068E50200C0E1020030B44388102B2ED11C
:1059B000884BB0F904105A680A4482F302025A6014
:1059C000C2EB821203EBC2022032111D9B68002B36
:1059D00003DA00227F4B9A6013E01279082A08D874
:1059E000DFE802F005090905090905090900022295
:1059F00002E0002200E00422013A9342C4BF754B4A
:105A00009A60D1F8D421013A724B9A61DFE0202BE1
:105A100040F0DD806F4B1B78002B44D16D4B5A68F2
:105A2000C2EB821203EBC2022032111D1B7BE3B1D9
:105A3000684B9B680133828851F82300182B00F2D1
:105A4000C68000FA82F403EB4305634A02EBC50506
:105A50006A68944203DBAA689442B8BF2246904227
:105A600000F0B58041F82320B1E0B0F90410594BA3
:105A70009B68C91813D41279082A08D8DFE802F005
:105A800005090905090905090900022302E00023A7
:105A900000E00423013B8B42A8BF0B4600E000233B
:105AA0004C4A936093E04B4B1B7C002B68D0494AD7
:105AB0005368C3EB831302EBC3032433D2691A4444
:105AC00092F8D821818853F82200182A11D800FAB8
:105AD00081F402EB4205404901EBC50569688C423F
